{
  "contractName": "TodoList",
  "abi": [
    {
      "inputs": [],
      "name": "taskCount",
      "outputs": [
        {
          "internalType": "uint256",
          "name": "",
          "type": "uint256"
        }
      ],
      "stateMutability": "view",
      "type": "function",
      "constant": true
    }
  ],
  "bytecode": "0x60806040526000805534801561001457600080fd5b5060b3806100236000396000f3fe6080604052348015600f57600080fd5b506004361060285760003560e01c8063b6cb58a514602d575b600080fd5b60336047565b604051603e91906064565b60405180910390f35b60005481565b6000819050919050565b605e81604d565b82525050565b6000602082019050607760008301846057565b9291505056fea2646970667358221220fc8aac202156264b99809b67bd4d0dcf5a3fc07c56204654ba4c532e5c97f8bb64736f6c63430008110033",
  "immutableReferences": {},
  "source": "pragma solidity 0.8.17;\r\n\r\ncontract TodoList {\r\n    uint256 public taskCount = 0;\r\n\r\n    struct Task {\r\n        uint256 id;\r\n        string content;\r\n        bool completed;\r\n    }\r\n}\r\n",
  "sourcePath": "D:\\BlockChain\\coba\\contracts\\TodoList.sol",
  "compiler": {
    "name": "solc",
    "version": "0.8.17+commit.8df45f5f.Emscripten.clang"
  },
  "schemaVersion": "3.4.10",
  "updatedAt": "2022-11-05T10:02:08.010Z",
  "networkType": "ethereum",
  "devdoc": {
    "kind": "dev",
    "methods": {},
    "version": 1
  },
  "userdoc": {
    "kind": "user",
    "methods": {},
    "version": 1
  }
}